{
  "_format": "hh-sol-artifact-1",
  "contractName": "ERC6551Account",
  "sourceName": "contracts/ERC6551Account.sol",
  "abi": [
    {
      "inputs": [],
      "stateMutability": "nonpayable",
      "type": "constructor"
    },
    {
      "inputs": [],
      "name": "InvalidSignature",
      "type": "error"
    },
    {
      "inputs": [],
      "name": "InvalidSigner",
      "type": "error"
    },
    {
      "inputs": [],
      "name": "NotAuthorized",
      "type": "error"
    },
    {
      "inputs": [],
      "name": "chainId",
      "outputs": [
        {
          "internalType": "uint256",
          "name": "",
          "type": "uint256"
        }
      ],
      "stateMutability": "view",
      "type": "function"
    },
    {
      "inputs": [
        {
          "internalType": "address",
          "name": "to",
          "type": "address"
        },
        {
          "internalType": "uint256",
          "name": "value",
          "type": "uint256"
        },
        {
          "internalType": "bytes",
          "name": "data",
          "type": "bytes"
        }
      ],
      "name": "executeCall",
      "outputs": [
        {
          "internalType": "bytes",
          "name": "result",
          "type": "bytes"
        }
      ],
      "stateMutability": "payable",
      "type": "function"
    },
    {
      "inputs": [],
      "name": "implementation",
      "outputs": [
        {
          "internalType": "address",
          "name": "",
          "type": "address"
        }
      ],
      "stateMutability": "view",
      "type": "function"
    },
    {
      "inputs": [
        {
          "internalType": "bytes32",
          "name": "hash",
          "type": "bytes32"
        },
        {
          "internalType": "bytes",
          "name": "signature",
          "type": "bytes"
        }
      ],
      "name": "isValidSignature",
      "outputs": [
        {
          "internalType": "bytes4",
          "name": "magicValue",
          "type": "bytes4"
        }
      ],
      "stateMutability": "view",
      "type": "function"
    },
    {
      "inputs": [],
      "name": "owner",
      "outputs": [
        {
          "internalType": "address",
          "name": "",
          "type": "address"
        }
      ],
      "stateMutability": "view",
      "type": "function"
    },
    {
      "inputs": [],
      "name": "state",
      "outputs": [
        {
          "internalType": "uint256",
          "name": "",
          "type": "uint256"
        }
      ],
      "stateMutability": "view",
      "type": "function"
    },
    {
      "inputs": [
        {
          "internalType": "bytes4",
          "name": "interfaceId",
          "type": "bytes4"
        }
      ],
      "name": "supportsInterface",
      "outputs": [
        {
          "internalType": "bool",
          "name": "",
          "type": "bool"
        }
      ],
      "stateMutability": "pure",
      "type": "function"
    },
    {
      "inputs": [],
      "name": "token",
      "outputs": [
        {
          "internalType": "uint256",
          "name": "chainId_",
          "type": "uint256"
        },
        {
          "internalType": "address",
          "name": "tokenContract_",
          "type": "address"
        },
        {
          "internalType": "uint256",
          "name": "tokenId_",
          "type": "uint256"
        }
      ],
      "stateMutability": "view",
      "type": "function"
    },
    {
      "inputs": [],
      "name": "tokenContract",
      "outputs": [
        {
          "internalType": "address",
          "name": "",
          "type": "address"
        }
      ],
      "stateMutability": "view",
      "type": "function"
    },
    {
      "inputs": [],
      "name": "tokenId",
      "outputs": [
        {
          "internalType": "uint256",
          "name": "",
          "type": "uint256"
        }
      ],
      "stateMutability": "view",
      "type": "function"
    },
    {
      "stateMutability": "payable",
      "type": "receive"
    }
  ],
  "bytecode": "0x610100806040523461006957306080524660a052600060c052600060e0526108b4908161006f82396080518161022c015260a0518181816102a0015281816105620152610818015260c0518181816101e7015261083a015260e0518181816101ae015261085c0152f35b600080fdfe6080604052600436101561001b575b361561001957600080fd5b005b60003560e01c806301ffc9a7146100bb5780631626ba7e146100b657806317d70f7c146100b157806355a373d6146100ac5780635c60da1b146100a75780638da5cb5b146100a25780639a8a05921461009d5780639e5d4c4914610098578063c19d93fb146100935763fc0c546a0361000e57610422565b610404565b61031d565b610288565b61025b565b610216565b6101d1565b610196565b610144565b346101115760203660031901126101115760043563ffffffff60e01b8116809103610111576020906301ffc9a760e01b8114908115610100575b506040519015158152f35b630b135d3f60e11b149050386100f5565b600080fd5b9181601f840112156101115782359167ffffffffffffffff8311610111576020838186019501011161011157565b346101115760403660031901126101115760243567ffffffffffffffff81116101115761018361017a6020923690600401610116565b906004356104b3565b6040516001600160e01b03199091168152f35b346101115760003660031901126101115760206040517f00000000000000000000000000000000000000000000000000000000000000008152f35b34610111576000366003190112610111576040517f00000000000000000000000000000000000000000000000000000000000000006001600160a01b03168152602090f35b34610111576000366003190112610111576040517f00000000000000000000000000000000000000000000000000000000000000006001600160a01b03168152602090f35b34610111576000366003190112610111576020610276610557565b6040516001600160a01b039091168152f35b346101115760003660031901126101115760206040517f00000000000000000000000000000000000000000000000000000000000000008152f35b6001600160a01b0381160361011157565b6020808252825181830181905290939260005b82811061030957505060409293506000838284010152601f8019910116010190565b8181018601518482016040015285016102e7565b606036600319011261011157600435610335816102c3565b60443567ffffffffffffffff811161011157610355903690600401610116565b6001600160a01b03610365610557565b1633036103f25760009283549160001983146103ed5784936001859401845581604051928392833781018481520391602435905af13d156103e4573d6103aa81610497565b906103b86040519283610470565b8152809260203d92013e5b156103dc576103d890604051918291826102d4565b0390f35b602081519101fd5b606091506103c3565b610724565b60405163ea8e4eb560e01b8152600490fd5b34610111576000366003190112610111576020600054604051908152f35b3461011157600036600319011261011157606061043d610816565b604080519384526001600160a01b03909216602084015290820152f35b634e487b7160e01b600052604160045260246000fd5b90601f8019910116810190811067ffffffffffffffff82111761049257604052565b61045a565b67ffffffffffffffff811161049257601f01601f191660200190565b9190916104be610557565b6104c783610497565b926104d56040519485610470565b8084523681860111610111576020816000926104f897838801378501015261074c565b61050157600090565b630b135d3f60e11b90565b90816020910312610111575180151581036101115790565b6040513d6000823e3d90fd5b908160209103126101115751610545816102c3565b90565b90816020910312610111575190565b61055f610816565b917f00000000000000000000000000000000000000000000000000000000000000000361071d576040516301ffc9a760e01b8082526380ac58cd60e01b6004830152602093926001600160a01b0316918481602481865afa8015610675578591600091610700575b506106a75750604051908152636cdb3d1360e11b60048201528381602481855afa9081156106755760009161067a575b5061060457505050600090565b604051627eeac760e11b815233600482015260248101929092528290829060449082905afa91821561067557600092610648575b505015610643573390565b600090565b6106679250803d1061066e575b61065f8183610470565b810190610548565b3880610638565b503d610655565b610524565b61069a9150843d86116106a0575b6106928183610470565b81019061050c565b386105f7565b503d610688565b6040516331a9108f60e11b815260048101949094529183915060249082905afa918215610675576000926106da57505090565b6105459250803d106106f9575b6106f18183610470565b810190610530565b503d6106e7565b6107179150823d84116106a0576106928183610470565b386105c7565b5050600090565b634e487b7160e01b600052601160045260246000fd5b60ff601b9116019060ff82116103ed57565b91908151604181146000146107b857506020808301516040808501516060958601518251958652600090811a868601529185019290925293830152919080608081015b838052039060015afa15610675576000516001600160a01b03166001600160a01b039091161490565b60400361080e578160009161078f6040602080960151930151916107de8360ff1c61073a565b6040805192835260ff90911660208301528101939093526001600160ff1b03909116606083015281906080820190565b505050600090565b7f0000000000000000000000000000000000000000000000000000000000000000907f0000000000000000000000000000000000000000000000000000000000000000907f00000000000000000000000000000000000000000000000000000000000000009056fea2646970667358221220aa277b099fab0524deaf8d1654ac0b751db48ae50972e2b457b0d4a0a6a2a38564736f6c63430008180033",
  "linkReferences": {},
  "deployedLinkReferences": {}
}